:0200000280007C
:10000000C8240720210908001D0908001D0908004F
:100010001D0908001D0908001D0908000000000056
:100020000000000000000000000000001D090800A2
:100030001D090800000000001D0908001D09080036
:100040001D0908001D0908001D0908001D090800F8
:100050001D0908001D0908001D0908001D090800E8
:100060001D0908001D09080000000000E90608003D
:1000700005070800210708003D07080000000000F0
:10008000000000001D0908001D0908001D090800E6
:100090001D0908001D0908001D0908001D090800A8
:1000A0001D090800000000001D0908001D090800C6
:1000B0001D0908001D0908001D0908001D09080088
:1000C0001D0908001D0908001D0908001D09080078
:1000D0001D0908001D0908001D0908001D09080068
:1000E0001D0908001D0908001D0908001D09080058
:1000F0001D09080008B50548054B191A062900D83E
:1001000008BD044A002AFBD09047F9E71C0E0800FE
:100110001F0E08000000000008B50748074B191A19
:100120008A1002EBD273591000D108BD044A002A8C
:10013000FBD09047F9E700BF1C0E08001C0E08001A
:100140000000000010B5064C237843B9FFF7D2FF3A
:10015000044810B10448AFF300800121217010BDA4
:1001600038040720000000001C0E080008B5084BEA
:100170001BB108480849AFF300800848016811B175
:10018000074A02B19047BDE80840FFF7C5BF00BF6E
:10019000000000001C0E08003C0407201C0E080094
:1001A000000000004FF01C0000BF00F1FF3300BF53
:1001B000581EF9D1704700BF70B5044688B140F2AF
:1001C000A515C0F2080500F1FF3303F00106A847AA
:1001D000013C07D170BDA84704F1FF34A847013C9A
:1001E000F9D170BD002EF6D0A847013CF3D170BD07
:1001F000F8B50446B0B14FF47A7640F2B915C0F2C2
:10020000080500F1FF3303F001073046A847013C21
:1002100009D1F8BD3046A84704F1FF343046A8475D
:10022000013CF7D1F8BD002FF4D03046A847013C7F
:10023000F0D1F8BDF8B50446B0B14FF47A7640F28B
:10024000F115C0F2080500F1FF3303F00107304655
:10025000A847013C09D1F8BD3046A84704F1FF3456
:100260003046A847013CF7D1F8BD002FF4D0304606
:10027000A847013CF0D1F8BD2DE9F04140F24533EB
:10028000C0F20803984740F2CD20C0F20800804732
:1002900041F21001C4F20E014FF000620A604FF00B
:1002A000010640F23525C0F2080541F23008C4F2DB
:1002B0000E08144641F23407C4F20E073046A84730
:1002C000C8F800403046A8473C60F7E710B54FF447
:1002D0003D40C0F2015040F62143C0F20803984768
:1002E0004FF000004FF03E0140F2F972C0F20802F8
:1002F000904740F66904C0F20804A0470028FCD0EB
:1003000040F67900C0F2080080474FF4C061C4F2A3
:100310000E0143F60173C2F20D038B6240F68904AD
:10032000C0F20804A0470028FCD04FF0100040F2B3
:100330005972C0F20802904740F65920C0F20800F6
:10034000804710BD10B541F65023C4F20E034FF4A0
:1003500000425A604FF00B0040F69904C0F20804C6
:10036000A0474FF00C00A0474FF00D00A0474FF002
:100370000E00A0474FF03B004FF0605140F2CD44DB
:10038000C0F20804A0474FF055004FF06051A0475D
:100390004FF056004FF06051A0474FF068004FF00B
:1003A0007901C2F60001A0474FF05C004FF0010157
:1003B000C2F60001A0474FF46060C4F20E004FF493
:1003C00040714FF0006240F2CD53C0F208039847ED
:1003D0004FF02B004FF00061A0474FF02A004FF084
:1003E0000061A04710BD00BF0AB1416670470166B9
:1003F000704700BF4264B1F1805F16D004D8C9B124
:10040000B1F1006F15D109E0B1F1405F12D0B1F147
:10041000605F0FD0B1F1205F0BD17047036F016FA8
:100420000B4023EA0203036703E0036F42EA030180
:1004300001674260704700BF41647047F8B50446E9
:100440000D4616461F4640F23943C0F2080398474E
:1004500020462946069A40F2E933C0F2080398473D
:100460000FB1256500E065650EB1256300E06563A9
:1004700025612560F8BD00BF70B504460D461646DF
:1004800040F23943C0F2080398472046294606F057
:10049000010240F2E933C0F20803984716F00A0F50
:1004A00014BF2562656216F0020F02D0C4F88050B6
:1004B00004E016F0080F18BFC4F88050656125608D
:1004C00070BD00BFC06C7047806C7047F0B583B0E2
:1004D0000D464FEA501606F5001101F207724FEA79
:1004E000422605F0F044B4F1205F42D006D8B4F1C2
:1004F000006F0AD0B4F1805F64D120E0B4F1405FB6
:1005000046D0B4F1605F5DD142E000F01F074FF0CC
:10051000010404FA07F730464FF000613A4640F212
:10052000F533C0F2080398473046394605EA04021D
:1005300040F2E933C0F208039847204644E000F057
:100540001F004FF0010404FA00F730464FF08051CD
:100550003A4640F2F533C0F2080398473046394630
:1005600005EA040240F2E933C0F208039847204646
:100570002AE000F01F024FF00104304604FA02F1B5
:100580002A4640F27943C0F20803984720461BE010
:1005900000F01F024FF0010405F0605305EA04016A
:1005A0000091304604FA02F1B3F1605F14BF0022FB
:1005B0000122C5F3800340F23D45C0F20805A8477B
:1005C000204601E04FF0000003B0F0BDF0B583B06D
:1005D00007460E46154602F0F044B4F1205F36D0CF
:1005E00006D8B4F1006F0AD0B4F1805F4DD11AE0A3
:1005F000B4F1405F33D0B4F1605F46D12FE04FF0EB
:100600000061324640F2F533C0F20803984738469D
:10061000314605F0010240F2E933C0F20803984781
:100620004FF0010033E04FF08051324640F2F53395
:10063000C0F2080398473846314605F0010240F2FF
:10064000E933C0F2080398474FF001001FE040F281
:100650007943C0F2080398474FF0010017E005F016
:10066000605205F00100009038463146B2F1605FFB
:1006700014BF00220122C5F3800340F23D44C0F2C2
:100680000804A0474FF0010001E04FF0000003B064
:10069000F0BD00BFF8B504460E4640F2C543C0F2B7
:1006A000080398470546204640F2C941C0F20801B8
:1006B0008847054014D00B4C274654F80C0CB04228
:1006C0000AD154F8081C294206D0226830469047C7
:1006D00054F8083C25EA030504F11004002DEBD181
:1006E000F8BD00BF6004072008B54FF46060C4F295
:1006F0000E004FF00B0140F29563C0F208039847DB
:1007000008BD00BF08B54FF48050C4F20E004FF092
:100710000C0140F29563C0F20803984708BD00BF82
:1007200008B54FF49050C4F20E004FF00D0140F2A6
:100730009563C0F20803984708BD00BF08B54FF4A1
:10074000A050C4F20E004FF00E0140F29563C0F2CB
:100750000803984708BD00BF4FF4C063C4F20E03FE
:100760001A6B22F0700108431863986E10F0080F9E
:1007700007D010E000F1FF33906E10F0080F38D072
:1007800009E04FF400604FF4C062C4F20E02916EB3
:1007900011F0080FEED04FF4C061C4F20E010A6BE5
:1007A00022F0030343F002000863896E11F0080F82
:1007B00009D04FF00000704703F1FF33916E11F044
:1007C000080F13D009E04FF400634FF4C062C4F285
:1007D0000E02906E10F0080FEED04FF00000704740
:1007E0004FF0010070474FF001007047013BF0D11E
:1007F000F9E7581ECBD1F3E788B14FF4C061C4F2DA
:100800000E01086A4FF6FC72CFF6C86202404FF044
:100810000203C0F2371342EA0300086270474FF444
:10082000C063C4F20E031A6A22F45C1020F00302C3
:1008300042F45C1040F001024FEA016142EA1140CB
:1008400018624FF4C062C4F20E02936E13F0010FEF
:10085000FBD04FF4C061C4F20E01086A40F09B72F5
:1008600042F480330B6270474FF4C063C4F20E034E
:10087000986E00F4803070474FF4C063C4F20E03EA
:100880004FF000529A6270474FF4C063C4F20E03F7
:10089000986E00F0020070472C2835D81F2817D812
:1008A0004FF4C061C4F20E018A694FF0010303FAEC
:1008B00000F31A4093422AD04FF0010101FA00F0F0
:1008C0004FF4C062C4F20E0210614FF00000704796
:1008D0004FF4C063C4F20E03D3F80821A0F1200046
:1008E0004FF0010101FA00F10A40914212D04FF09D
:1008F000010303FA00F04FF4C062C4F20E02C2F822
:1009000000014FF0000070474FF0010070474FF0BA
:10091000000070474FF00000704700BFFEE700BFC7
:1009200038B540F20003C2F2070340F61C62C0F281
:1009300008029A4203D040484049814204D3404BC8
:10094000404A9A4225D342E03F4D404C631B23F07E
:1009500003054FF0000340F20002C2F2070240F626
:100960001C61C0F2080105F10400C5F380045D5864
:100970009D5003F10403834255D1E0E75D589D503B
:1009800003F104035C589C5003F104038342F5D146
:10099000D5E72F4D2F49481B20F0030440F2384380
:1009A000C2F20703E2184FF00001501BA0F104004F
:1009B000C0F3800445F8041F95422DD107E005F1EE
:1009C0000403696005F1080559609542F7D140F2CA
:1009D0000005C0F2080525F0604222F07F014FF4C7
:1009E0006D40CEF20000816005F16044B4F5801FD7
:1009F00007D24FF46D43CEF200039D6845F00052DC
:100A00009A6040F68551C0F20801884740F279208B
:100A1000C0F208008047FEE7002CD0D045F8041F44
:100A20009542CCD1D3E7002CA8D05C589C5003F160
:100A300004038342A2D182E7380407200000072084
:100A4000C404072038040720040007203B040720C3
:100A500034040720BF0407204FF4C063C4F20E0320
:100A6000186B00F00301032900F2B180DFE801F008
:100A700002144F4F41F61020C4F20E00416911F0EC
:100A8000800F40F20003C2F2070314BF4FF400428C
:100A90004FF4FA421A609AE04FF4C063C4F20E03B6
:100AA000186A10F0807F09D04FF4D853C0F2B70312
:100AB00040F20002C2F20702136088E04FF41061B6
:100AC000C0F23D0140F20002C2F2070211604FF491
:100AD000C063C4F20E03186A00F07001102902D03E
:100AE000202974D109E04FF49050C0F27A0040F20E
:100AF0000001C2F20701086069E04FF4D853C0F268
:100B0000B70340F20002C2F2070213605FE04FF445
:100B1000C062C4F20E02136A13F0807F09D04FF452
:100B2000D851C0F2B70140F20002C2F207021160D0
:100B300027E04FF41060C0F23D0040F20001C2F225
:100B4000070108604FF4C062C4F20E02136A03F09A
:100B50007000102802D0202813D109E04FF49053E0
:100B6000C0F27A0340F20000C2F20700036008E01E
:100B70004FF4D851C0F2B70140F20002C2F20702AE
:100B800011604FF4C063C4F20E03186B00F0030150
:100B9000022913D14FF4C061C4F20E01886A896A38
:100BA00040F20003C2F20703C0F30A401A6800FBD8
:100BB0000220C9B2B0FBF1F21A6008E04FF4E05332
:100BC000C0F64E6340F20002C2F2070213604FF417
:100BD000C062C4F20E02106B00F0700170290ED1D9
:100BE00040F20003C2F2070318684AF6AB22CAF6C5
:100BF000AA22A2FB00014FEA5100186070474FF48F
:100C0000C063C4F20E031A6B40F20000C2F2070088
:100C1000C2F30211036823FA01F30360704700BFB7
:100C200045F29F23C0F2571398420CD84FF420602E
:100C3000C4F20E004FF0000101604FF44063C4F2B3
:100C40000E03196070474CF67F41C0F206218842BE
:100C50000CD84FF42063C4F20E034FF48071196076
:100C60004FF44062C4F20E02116070474BF23F73C2
:100C7000C0F2283398420CD84FF42061C4F20E0120
:100C80004FF400720A604FF44060C4F20E0002603C
:100C9000704742F67F71C0F2A64188424FF420604F
:100CA000C4F20E0094BF4FF440724FF480620260B1
:100CB0004FF44063C4F20E031A6070472DE9F84305
:100CC0009846234B06461C680F46D4F848019146C7
:100CD00018B904F5A670C4F8480141681F2916DD4B
:100CE0001C4818B94FF0FF30BDE8F8834FF4C870C6
:100CF000AFF300800028F5D0D4F8482100254560E6
:100D00000260C4F84801C0F88851C0F88C51B6B1EF
:100D10004468012202FA04F2D0F8881100EB84033F
:100D20001143022EC3F88890C0F888111C46C3F8FE
:100D3000088104D1D0F88C311A43C0F88C21416865
:100D40008B1C4A1C40F8237042600020BDE8F883E9
:100D5000F00D08000000000070B5084B084C00259D
:100D6000E01A841003EB8406043D1CB172599047CD
:100D7000013CF9E7BDE8704000F048B8180E0800E3
:100D80001C0E080038B50E4D0E4B0024E81A8510D5
:100D9000AC4205D00B4951F8242090470134F7E7C5
:100DA00000F02AF80849094A541AA5100024AC4258
:100DB00005D0054B53F8240080470134F7E738BDD0
:100DC000040E0800040E0800040E08000C0E0800B3
:100DD000024B13B1024800F005B870470000000054
:100DE000590D08000146002002460346FFF766BF82
:100DF0001000072043000000F8B500BFF8BC08BC95
:100E00009E467047D10D08006D010800F8B500BF7F
:0C0E1000F8BC08BC9E4670474501080075
:100E1C0000093D0000000000100007200000000049
:100E2C0000000000FC02072064030720CC0307200D
:100E3C0000000000000000000000000000000000A6
:100E4C000000000000000000000000000000000096
:100E5C0000000000F40D080000000000000000007D
:100E6C000000000000000000000000000000000076
:100E7C000000000000000000000000000000000066
:100E8C000000000000000000000000000000000056
:100E9C000000000000000000000000000000000046
:100EAC000000000000000000000000000000000036
:100EBC000000000000000000000000000000000026
:100ECC000000000000000000010000000000000015
:100EDC000E33CDAB34126DE6ECDE05000B000000DA
:100EEC0000000000000000000000000000000000F6
:100EFC0000000000000000000000000000000000E6
:100F0C0000000000000000000000000000000000D5
:100F1C0000000000000000000000000000000000C5
:04000003800009214F
:00000001FF
